{
  "contractName": "SafeMath",
  "abi": [
    {
      "constant": true,
      "inputs": [],
      "name": "MAX_UINT256",
      "outputs": [
        {
          "name": "",
          "type": "uint256"
        }
      ],
      "payable": false,
      "stateMutability": "view",
      "type": "function"
    }
  ],
  "bytecode": "0x60606040523415600e57600080fd5b60b08061001c6000396000f300606060405260043610603f576000357c0100000000000000000000000000000000000000000000000000000000900463ffffffff16806333a581d2146044575b600080fd5b604a6060565b6040518082815260200191505060405180910390f35b7fffffffffffffffffffffffffffffffffffffffffffffffffffffffffffffffff815600a165627a7a72305820a03657e95ae202bed09bfe8686b4c74c17aeaa9202ae0507cc9efa1f7da3ec420029",
  "source": "pragma solidity ^0.4.17;\n\n\ncontract ERC223TokenInterface {\n\n    function name() public view returns (string _name);\n    function symbol() public view returns (string _symbol);\n    function decimals() public view returns (uint8 _decimals);\n    function totalSupply() public view returns (uint256 _supply);\n\n    function balanceOf(address who) public view returns (uint256 _balance);\n\n    function transfer(address to, uint value) public returns (bool ok);\n    function transfer(address to, uint value, bytes data) public returns (bool ok);\n\n    function transferFrom(address from, address to, uint256 value) public returns (bool);\n    function transferFrom(address from, address to, uint256 value, bytes data) public returns (bool);\n\n\n    function approve(address spender, uint256 value) public returns (bool);\n    function allowance(address owner, address spender) public view returns (uint256);\n\n    event Transfer(address indexed from, address indexed to, uint256 value);\n    event Transfer(address indexed from, address indexed to, uint value, bytes indexed data);\n\n    event Approval(address indexed owner, address indexed spender, uint256 value);\n\n}\n\n\nlibrary SafeMath {\n    uint256 constant public MAX_UINT256 =\n    0xFFFFFFFFFFFFFFFFFFFFFFFFFFFFFFFFFFFFFFFFFFFFFFFFFFFFFFFFFFFFFFFF;\n\n    function safeAdd(uint256 x, uint256 y) pure internal returns (uint256 z) {\n        if (x > MAX_UINT256 - y) revert();\n        return x + y;\n    }\n\n    function safeSub(uint256 x, uint256 y) pure internal returns (uint256 z) {\n        if (x < y) revert();\n        return x - y;\n    }\n\n    function safeMul(uint256 x, uint256 y) pure internal returns (uint256 z) {\n        if (y == 0) return 0;\n        if (x > MAX_UINT256 / y) revert();\n        return x * y;\n    }\n}\n\ncontract WETH10 is ERC223TokenInterface {\n    using SafeMath for uint256;\n\n    string public name     = \"Wrapped Ether\";\n    string public symbol   = \"WETH\";\n    uint8  public decimals = 18;\n\n    event  Approval(address indexed src, address indexed guy, uint wad);\n    event  Transfer(address indexed src, address indexed dst, uint wad);\n    event  Transfer(address indexed src, address indexed dst, uint256 wad, bytes data);\n    event  Deposit(address indexed dst, uint wad);\n    event  Withdrawal(address indexed src, uint wad);\n\n    mapping (address => uint)                       public  balanceOf;\n    mapping (address => mapping (address => uint))  public  allowance;\n\n\n    function() public payable {\n        deposit();\n    }\n\n    function deposit() public payable {\n        balanceOf[msg.sender] += msg.value;\n        Deposit(msg.sender, msg.value);\n    }\n\n    function withdraw(uint wad) public {\n        require(balanceOf[msg.sender] >= wad);\n        balanceOf[msg.sender] -= wad;\n        msg.sender.transfer(wad);\n        Withdrawal(msg.sender, wad);\n    }\n\n    function totalSupply() public view returns (uint) {\n        return this.balance;\n    }\n\n    function approve(address guy, uint wad) public returns (bool) {\n        allowance[msg.sender][guy] = wad;\n        Approval(msg.sender, guy, wad);\n        return true;\n    }\n\n    function transferFrom(address src, address dst, uint wad, bytes data) public returns (bool) {\n        require(balanceOf[src] >= wad);\n\n        if (src != msg.sender && allowance[src][msg.sender] != uint(-1)) {\n            require(allowance[src][msg.sender] >= wad);\n            allowance[src][msg.sender] -= wad;\n        }\n\n        if(isContract(dst)) {\n            // 0xc0ee0b8a == bytes4(keccak256(\"tokenFallback(address,uint256,bytes)\"))\n            if (dst.call(0xc0ee0b8a, src, wad, data)) {\n                balanceOf[src] = balanceOf[src].safeSub(wad);\n                balanceOf[dst] = balanceOf[dst].safeAdd(wad);\n            } else {\n                require(dst.send(wad));\n                balanceOf[src] = balanceOf[src].safeSub(wad);\n            }\n        } else {\n            balanceOf[src] = balanceOf[src].safeSub(wad);\n            balanceOf[dst] = balanceOf[dst].safeAdd(wad);\n        }\n\n        Transfer(src , dst, wad);\n        Transfer(src , dst, wad, data);\n\n        return true;\n    }\n\n    function transfer(address dst, uint wad) public returns (bool) {\n        bytes memory empty;\n        return transferFrom(msg.sender, dst, wad, empty);\n    }\n\n    function transfer(address dst, uint wad, bytes data) public returns (bool) {\n        return transferFrom(msg.sender, dst, wad, data);\n    }\n\n    function transferFrom(address src, address dst, uint wad) public returns (bool) {\n        bytes memory empty;\n        return transferFrom(src, dst, wad, empty);\n    }\n\n    //assemble the given address bytecode. If bytecode exists then the _addr is a contract.\n    function isContract(address _addr) private view returns (bool is_contract) {\n        uint length;\n        assembly {\n            //retrieve the size of the code on target address, this needs assembly\n            length := extcodesize(_addr)\n        }\n        return (length>0);\n    }\n}\n",
  "sourcePath": "/Users/narush/ethereum/hw/SHIT/contracts/WETH10.sol",
  "compiler": {
    "name": "solc",
    "version": "0.4.18+commit.9cf6e910.Emscripten.clang"
  },
  "schemaVersion": "1.0.1",
  "updatedAt": "2018-01-20T00:25:29.734Z"
}