{
  "contractName": "SafeMath",
  "abi": [
    {
      "constant": true,
      "inputs": [],
      "name": "MAX_UINT256",
      "outputs": [
        {
          "name": "",
          "type": "uint256"
        }
      ],
      "payable": false,
      "stateMutability": "view",
      "type": "function"
    }
  ],
  "bytecode": "0x60606040523415600e57600080fd5b60b08061001c6000396000f300606060405260043610603f576000357c0100000000000000000000000000000000000000000000000000000000900463ffffffff16806333a581d2146044575b600080fd5b604a6060565b6040518082815260200191505060405180910390f35b7fffffffffffffffffffffffffffffffffffffffffffffffffffffffffffffffff815600a165627a7a72305820680b78f53a4ed7b6320a06fd2328c6b7d4f0ce615b8c882b7fc0fa2ab1486d470029",
  "source": "pragma solidity ^0.4.17;\n\n/* https://github.com/LykkeCity/EthereumApiDotNetCore/blob/master/src/ContractBuilder/contracts/token/SafeMath.sol */\n\nlibrary SafeMath {\n    uint256 constant public MAX_UINT256 =\n    0xFFFFFFFFFFFFFFFFFFFFFFFFFFFFFFFFFFFFFFFFFFFFFFFFFFFFFFFFFFFFFFFF;\n\n    function safeAdd(uint256 x, uint256 y) pure internal returns (uint256 z) {\n        if (x > MAX_UINT256 - y) revert();\n        return x + y;\n    }\n\n    function safeSub(uint256 x, uint256 y) pure internal returns (uint256 z) {\n        if (x < y) revert();\n        return x - y;\n    }\n\n    function safeMul(uint256 x, uint256 y) pure internal returns (uint256 z) {\n        if (y == 0) return 0;\n        if (x > MAX_UINT256 / y) revert();\n        return x * y;\n    }\n}\n",
  "sourcePath": "/Users/sunnya97/dev/weth2/contracts/SafeMath.sol",
  "compiler": {
    "name": "solc",
    "version": "0.4.18+commit.9cf6e910.Emscripten.clang"
  },
  "schemaVersion": "1.0.1",
  "updatedAt": "2018-01-19T23:37:31.182Z"
}